:020000040800F2
:1000000070060020290200083102000833020008AF
:10001000350200083702000839020008000000001D
:100020000000000000000000000000003B0200088B
:100030003D020008000000003F02000841020008E5
:10004000430200084302000843020008430200087C
:10005000430200084302000843020008430200086C
:10006000430200084302000843020008430200085C
:10007000430200084302000843020008430200084C
:10008000430200084302000843020008430200083C
:10009000430200084302000843020008430200082C
:1000A000430200084302000843020008430200081C
:1000B000430200084302000843020008430200080C
:1000C00043020008430200084302000843020008FC
:1000D00043020008430200084302000843020008EC
:1000E00043020008430200084302000843020008DC
:1000F00043020008430200084302000843020008CC
:1001000043020008430200084302000843020008BB
:1001100043020008430200084302000843020008AB
:10012000430200084302000843020008430200089B
:10013000430200084302000843020008430200088B
:10014000430200084302000843020008430200087B
:10015000430200084302000843020008430200086B
:10016000430200084302000843020008430200085B
:100170004302000843020008430200080000000098
:10018000430200084302000800F002F800F03CF8C7
:100190000AA090E8000C82448344AAF10107DA45E2
:1001A00001D100F031F8AFF2090EBAE80F0013F0F8
:1001B000010F18BFFB1A43F001031847600A000043
:1001C000800A0000103A24BF78C878C1FAD85207D4
:1001D00024BF30C830C144BF04680C6070470000C1
:1001E0000023002400250026103A28BF78C1FBD840
:1001F000520728BF30C148BF0B6070471FB500F0E1
:10020000FCFC1FBD10B510BD00F03CF91146FFF716
:10021000F5FF00F095FC00F05AF903B4FFF7F2FF88
:1002200003BC00F061F90000094880470948004715
:10023000FEE7FEE7FEE7FEE7FEE7FEE7FEE7FEE796
:10024000FEE7FEE704480549054A064B70470000F3
:10025000410A000889010008700000207006002093
:10026000700200207002002053EA020C00F0698046
:100270002DE9F04B4FF00006002B1FBFB3FA83F5BA
:1002800003FA05F424FA05F65E4012BF1643B2FAEB
:1002900082F502FA05F4C5F120051EBF22FA05FC1D
:1002A00044EA0C04203556EA044C4FEA144418BFC3
:1002B000641C4FF000084FF00009904271EB030CF2
:1002C00039D3002919BFB1FA81F701FA07F6B0FA5C
:1002D00080F700FA07F6C7F120071EBF20FA07FCD7
:1002E00046EA0C062037B6FBF4FCA7EB0507103FE7
:1002F00007F01F0BCBF120062CFA06F60CFA0BFBCD
:1003000044BFB3460026202FA4BF5E464FF0000B2B
:100310005BEA060C08BF4FF0010B19EB0B0948EB29
:100320000608ABFB027C06FB02CC0BFB03CCC01B1C
:1003300071EB0C01C1E70B46024641464846BDE859
:10034000F08B13B5084318BF4FF0FF300146AFF3F1
:100350000080BDE81C40704710B5431C02E010F857
:10036000011B71B18107FAD14FF0013202C88C1A1A
:100370008C4314EAC211F9D0C01A0A0603D0C01E79
:1003800010BDC01A10BD0A0401D0801E10BD0902A4
:10039000FCD0401E10BD10B5044610F0030F08BF7E
:1003A00011F0030F40F015804FF0013E121FC0F214
:1003B0000E8051F8043BA3EB0E0C2CEA030C1CEA54
:1003C000CE1C08BF40F8043BF0D0A1F1040102F1BB
:1003D0000402521E08DB11F8013B00F8013B002B20
:1003E000F7D1114600F005F8204610BD7047704760
:1003F00070474FF000020429C0F0128010F0030C87
:1004000000F01B80CCF1040CBCF1020F18BF00F807
:10041000012BA8BF20F8022BA1EB0C0100F00DB8B6
:100420005FEAC17C24BF00F8012B00F8012B48BF14
:1004300000F8012B70474FF0000200B513469446B8
:100440009646203922BFA0E80C50A0E80C50B1F12C
:100450002001BFF4F7AF090728BFA0E80C5048BF40
:100460000CC05DF804EB890028BF40F8042B08BFDE
:10047000704748BF20F8022B11F0804F18BF00F8DA
:10048000012B7047754600F02BF8AE460500694613
:10049000534620F00700854618B020B5FFF7D2FE7E
:1004A000BDE820404FF000064FF000074FF0000875
:1004B0004FF0000BAC46ACE8C009ACE8C009ACE8B2
:1004C000C009ACE8C00921F007018D46704710B59E
:1004D0000446AFF300802046BDE81040FFF79DBE04
:1004E000004870470800002001491820ABBEFEE715
:1004F0002600020070470000B0B5044600F0E8F89E
:10050000054640F20400C2F200000078611C18BFEA
:10051000044400BF00F0DCF8401BA042FAD3B0BD99
:100520002DE9F04F82B000F13E4241F6004502F164
:10053000FF77C4F2020508224FEAB726A84208BF97
:100540000722072E38BF4FEAB7224FF0010A0024D6
:1005500000274FF00009009209E000BF09F10109EE
:100560000237B9F1100F04F1040400F0A6800A6804
:100570000AFA09FC12EA0C08F0D0D1F804B00BF02A
:10058000030AAAF10102012A12D882680323CE6865
:1005900003FA07FE22EA0E02BE403243826042683E
:1005A000CBF3001622EA0C0206FA09F63243426047
:1005B000BAF1030F1DD0C26803238D6803FA07F652
:1005C000B24305FA07F63243BAF1020FC26010D106
:1005D0006FF0030202EA59020244D2F820C004F08C
:1005E0001C050F230E69AB402CEA0303AE403343D6
:1005F0001362026803234E68BB409A4306F003036C
:10060000BB401A4316F4403F4FF0010A0260A5D0E8
:10061000002243F644030192C4F202031A6843F62F
:10062000004E42F480421A601A68C4F2010E02F4CD
:1006300080420192019A29F003024FF6084C72445D
:10064000CFF6FF7C52F80C3004F00C060F25B540B5
:10065000AB43009D05FA06F6334342F80C30DEF852
:1006600008204B6842EA080643F60C4CDD0258BFEE
:1006700022EA0806CEF80860C4F2010CDCF800207B
:100680009D0242EA080658BF22EA0806CCF800603C
:10069000DEF804209D0342EA080658BF22EA080655
:1006A000CEF80460DEF80020DB0342EA080658BFFB
:1006B00022EA0806CEF8006050E702B0BDE8F08FED
:1006C000426902EA0103914341EA034181617047B3
:1006D00040F26800C2F200000068704740F200007B
:1006E00043F60801C2F20000C4F202010068096882
:1006F00040F61442C1F38221C0F60002515CC840AA
:100700007047000040F2000043F60801C2F200000A
:10071000C4F202010068096840F61442C1F3423194
:10072000C0F60002515CC84070470000002804BFBA
:100730000120704710B5044690F83D0028B900200C
:1007400084F83C00204600F021F8242084F83D0085
:100750002068C16821F40051C160204600F07AF998
:100760002068016921F490410161416921F02A0169
:100770004161C16841F40051C16000202021206422
:1007800084F83D1084F83E1010BD00007047000052
:100790002DE9F04381B0044690F83E0020280DD1A9
:1007A0000D4600294FF0010000F08A801746002A0C
:1007B00000F0868094F83C00012803D1022001B0AB
:1007C000BDE8F083012084F83C00002022219846F7
:1007D000206484F83E102063FFF77AFFA785E78541
:1007E000A1688146B1F5805F01D1206910B12E4624
:1007F000002500E00026002084F83C00E08D002861
:100800005AD008F101070CE02068002640686FF319
:100810005F2025F8020BE08D0138E085E08D00288F
:100820004AD020680068800612D477B1B8F1000F72
:1008300005D121E0016889060AD4002FFAD0FFF71C
:1008400047FFA0EB0900404516D82068F2E700BF3B
:10085000002ED9D0A068B0F5805F07D008B9206914
:1008600020B12068406800F07F0001E02068406807
:1008700006F8010BCFE700BF206850E8030F21689E
:1008800020F4D07041E80302002AF5D1206850E836
:10089000050F216820F0010041E80502002AF5D18A
:1008A000202084F83D0084F83E00002084F83C00BD
:1008B000032001B0BDE8F083202084F83E00002032
:1008C00001B0BDE8F08300002DE9F04381B004469B
:1008D00090F83D0020280DD10D4600294FF0010071
:1008E00000F0AB801646002A00F0A78094F83C0088
:1008F000012803D1022001B0BDE8F083012084F873
:100900003C00002020642120984684F83D00FFF739
:10091000DFFEA684E684A1688146B1F5805F01D13F
:10092000206910B12F46002500E00027002084F840
:100930003C00E08C002842D008F101060AE000BF2C
:1009400097B117F8010B21684860E08C0138E0840A
:10095000E08CA0B3206800680006F1D4BEB1B8F105
:10096000000F0ED116E000BF35F8020B21686FF3BF
:100970005F2048600027E8E701680906E0D4002E00
:10098000FAD0FFF7A5FEA0EB0900404502D8206889
:10099000F2E700BF206850E8030F216820F4D07010
:1009A00041E80302002AF5D1206850E8050F2168CC
:1009B00020F0010041E80502002AF5D10AE0206894
:1009C0000068400635D4B8F1000F1DD018F10105BC
:1009D0000CD012E0202084F83D0084F83E00002076
:1009E00084F83C00032001B0BDE8F083206800BF1C
:1009F000016849061DD4002DFAD0FFF769FEA0EB6F
:100A000009004045F2D900BF206850E8030F216873
:100A100020F4D07041E80302002AF5D1206850E8A4
:100A2000050F216820F0010041E80502002AF5D1F8
:100A3000D0E7202084F83D00002001B0BDE8F0831D
:100A40004EF68850CEF20000016841F4700101605A
:100A50007047000010B504460068D4E902C223695B
:100A6000016921F4405111430161626943EA0C01BB
:100A7000E3691143C268194349F20C639A43114375
:100A8000C1604169A26921F4407141F20043114300
:100A900040F48062C4F201039A42416102D1FFF73F
:100AA00031FE01E0FFF71AFEE16963681922B1F532
:100AB000004FA0FB020121D15A00DB0FFFF7D4FB4E
:100AC00048F21F51C5F2EB11A0FB01235A094FF662
:100AD0009C73C0F6FF7303F1805302FB03003223C3
:100AE00003EBC000A0FB01014FF4F87000EA111005
:100AF00000EB0210C1F3421108441DE09A009B0F65
:100B0000FFF7B2FB48F21F51C5F2EB11A0FB012326
:100B10005A094FF69C73C0F6FF7302FB03003223A1
:100B200003EB0010A0FB0101F02000EA511000EBE4
:100B30000210C1F3431108442168886010BD000011
:100B400098B0002543F630060295C4F202063068DC
:100B500041F6000440F0400030603068C4F2020406
:100B600000F04000029002984FF4005013900120D2
:100B7000CDE91405169013A92046FFF7D1FC029584
:100B8000706940F010007061706900F01000029010
:100B90000298A4F5843002904FF4E130CDE90305CA
:100BA0000C20CDE90555CDE90705099502AD28468C
:100BB000FFF7BCFD0DF102060DF1030720464FF4CF
:100BC0000051FFF77DFD2846314601224FF0FF33EB
:100BD000FFF7DEFD384631460122FFF7DCFBFFF769
:100BE000BBFB82B2284639464FF0FF33FFF76CFE5D
:100BF0004FF47A70FFF780FCE0E7F1EE100A4FF651
:100C0000FF71C0F2C03120EA010040F04070E1EE17
:100C1000100A704700000000010203043C0C0008A9
:100C20000000002008000000C4010008440C000877
:100C30000800002068060000E00100080024F4001D
:040C400001000000AF
:0400000508000229C4
:00000001FF
