:020000040800F2
:10000000600600200D020008150200081702000813
:10001000190200081B0200081D0200080000000071
:100020000000000000000000000000001F020008A7
:100030002102000800000000230200082502000839
:1000400027020008270200082702000827020008EC
:1000500027020008270200082702000827020008DC
:1000600027020008270200082702000827020008CC
:1000700027020008270200082702000827020008BC
:1000800027020008270200082702000827020008AC
:10009000270200082702000827020008270200089C
:1000A000270200082702000827020008270200088C
:1000B000270200082702000827020008270200087C
:1000C000270200082702000827020008270200086C
:1000D000270200082702000827020008270200085C
:1000E000270200082702000827020008270200084C
:1000F000270200082702000827020008270200083C
:10010000270200082702000827020008270200082B
:10011000270200082702000827020008270200081B
:10012000270200082702000827020008270200080B
:1001300027020008270200082702000827020008FB
:1001400027020008270200082702000827020008EB
:1001500027020008270200082702000827020008DB
:1001600027020008270200082702000827020008CB
:1001700027020008270200082702000800000000EC
:10018000270200082702000800F002F800F02EF80D
:100190000AA090E8000C82448344AAF10107DA45E2
:1001A00001D100F023F8AFF2090EBAE80F0013F006
:1001B000010F18BFFB1A43F0010318477403000036
:1001C000840300000023002400250026103A28BFE5
:1001D00078C1FBD8520728BF30C148BF0B607047B9
:1001E0001FB500F098F91FBD10B510BD00F031F833
:1001F0001146FFF7F5FF00F04FF900F04FF803B498
:10020000FFF7F2FF03BC00F057F8000009488047F1
:1002100009480047FEE7FEE7FEE7FEE7FEE7FEE7E8
:10022000FEE7FEE7FEE7FEE704480549054A064B00
:100230007047000085040008890100086000002064
:1002400060060020600200206002002070477047B6
:100250007047754600F02CF8AE46050069465346D7
:1002600020F00700854618B020B5FFF7DDFFBDE898
:1002700020404FF000064FF000074FF000084FF00D
:10028000000BAC46ACE8C009ACE8C009ACE8C0095A
:10029000ACE8C00921F007018D46704710B504464F
:1002A000AFF300802046BDE81040FFF7A8BF000074
:1002B000004870470000002001491820ABBEFEE74F
:1002C00026000200704700002DE9F04F82B000F1D7
:1002D0003E4241F6004502F1FF77C4F202050822D2
:1002E0004FEAB726A84208BF0722072E38BF4FEAB9
:1002F000B7224FF0010A002400274FF000090092B6
:1003000009E000BF09F101090237B9F1100F04F14A
:10031000040400F0A6800A680AFA09FC12EA0C0834
:10032000F0D0D1F804B00BF0030AAAF10102012ABF
:1003300012D882680323CE6803FA07FE22EA0E026F
:10034000BE40324382604268CBF3001622EA0C02C0
:1003500006FA09F632434260BAF1030F1DD0C268B3
:1003600003238D6803FA07F6B24305FA07F6324312
:10037000BAF1020FC26010D16FF0030202EA590213
:100380000244D2F820C004F01C050F230E69AB40D4
:100390002CEA0303AE4033431362026803234E6822
:1003A000BB409A4306F00303BB401A4316F4403F98
:1003B0004FF0010A0260A5D0002243F644030192E7
:1003C000C4F202031A6843F6004E42F480421A60F7
:1003D0001A68C4F2010E02F480420192019A29F0D7
:1003E00003024FF6084C7244CFF6FF7C52F80C30F3
:1003F00004F00C060F25B540AB43009D05FA06F648
:10040000334342F80C30DEF808204B6842EA080615
:1004100043F60C4CDD0258BF22EA0806CEF808600D
:10042000C4F2010CDCF800209D0242EA080658BF25
:1004300022EA0806CCF80060DEF804209D0342EAB8
:10044000080658BF22EA0806CEF80460DEF800204D
:10045000DB0342EA080658BF22EA0806CEF800602D
:1004600050E702B0BDE8F08F426902EA0103914310
:1004700041EA034181617047002A08BF0904816194
:10048000704700004EF68850CEF20000016841F43B
:10049000700101607047000086B0002043F6300113
:1004A0000090C4F202010A68002442F001020A60CE
:1004B0000968C4F2020401F00101009100994FF4AF
:1004C000407100910121CDE9011003906946204659
:1004D000FFF7FAFE20464FF440710022FFF7CCFFF1
:1004E00048F60A35C0F2020520464FF48071FFF746
:1004F000BBFF20464FF40071FFF7B6FF0595059846
:10050000411E00280591EFD000BF0598411E00282C
:100510000591F9D1E8E7F1EE100A4FF6FF71C0F24C
:10052000C03120EA010040F04070E1EE100A70474F
:10053000400500080000002060060000C40100081B
:040000050800020DE0
:00000001FF
