:020000040800F2
:1000000070060020290200083102000833020008AF
:10001000350200083702000839020008000000001D
:100020000000000000000000000000003B0200088B
:100030003D020008000000003F02000841020008E5
:10004000430200084302000843020008430200087C
:10005000430200084302000843020008430200086C
:10006000430200084302000843020008430200085C
:10007000430200084302000843020008430200084C
:10008000430200084302000843020008430200083C
:10009000430200084302000843020008430200082C
:1000A000430200084302000843020008430200081C
:1000B000430200084302000843020008430200080C
:1000C00043020008430200084302000843020008FC
:1000D00043020008430200084302000843020008EC
:1000E00043020008430200084302000843020008DC
:1000F00043020008430200084302000843020008CC
:1001000043020008430200084302000843020008BB
:1001100043020008430200084302000843020008AB
:10012000430200084302000843020008430200089B
:10013000430200084302000843020008430200088B
:10014000430200084302000843020008430200087B
:10015000430200084302000843020008430200086B
:10016000430200084302000843020008430200085B
:100170004302000843020008430200080000000098
:10018000430200084302000800F002F800F03CF8C7
:100190000AA090E8000C82448344AAF10107DA45E2
:1001A00001D100F031F8AFF2090EBAE80F0013F0F8
:1001B000010F18BFFB1A43F001031847900300001A
:1001C000B0030000103A24BF78C878C1FAD85207AB
:1001D00024BF30C830C144BF04680C6070470000C1
:1001E0000023002400250026103A28BF78C1FBD840
:1001F000520728BF30C148BF0B6070471FB500F0E1
:1002000097F91FBD10B510BD00F031F81146FFF78A
:10021000F5FF00F063F900F04FF803B4FFF7F2FFC9
:1002200003BC00F057F80000094880470948004720
:10023000FEE7FEE7FEE7FEE7FEE7FEE7FEE7FEE796
:10024000FEE7FEE704480549054A064B70470000F3
:10025000C904000889010008700000207006002011
:10026000700200207002002070477047704775468A
:1002700000F02CF8AE4605006946534620F0070012
:10028000854618B020B5FFF7DDFFBDE820404FF0F0
:1002900000064FF000074FF000084FF0000BAC468F
:1002A000ACE8C009ACE8C009ACE8C009ACE8C009DA
:1002B00021F007018D46704710B50446AFF300806A
:1002C0002046BDE81040FFF7A8BF00000048704777
:1002D0000800002001491820ABBEFEE726000200FE
:1002E00070470000B0B5044600F0E8F8054640F25B
:1002F0000000C2F200000078611C18BF044400BF77
:1003000000F0DCF8401BA042FAD3B0BD2DE9F04F5D
:1003100082B000F13E4241F6004502F1FF77C4F29F
:10032000020508224FEAB726A84208BF0722072E77
:1003300038BF4FEAB7224FF0010A002400274FF0E0
:100340000009009209E000BF09F101090237B9F183
:10035000100F04F1040400F0A6800A680AFA09FCF0
:1003600012EA0C08F0D0D1F804B00BF0030AAAF19D
:100370000102012A12D882680323CE6803FA07FE1D
:1003800022EA0E02BE40324382604268CBF300167E
:1003900022EA0C0206FA09F632434260BAF1030F70
:1003A0001DD0C26803238D6803FA07F6B24305FA2D
:1003B00007F63243BAF1020FC26010D16FF00302A8
:1003C00002EA59020244D2F820C004F01C050F23AF
:1003D0000E69AB402CEA0303AE403343136202685C
:1003E00003234E68BB409A4306F00303BB401A4305
:1003F00016F4403F4FF0010A0260A5D0002243F6F8
:1004000044030192C4F202031A6843F6004E42F418
:1004100080421A601A68C4F2010E02F4804201920E
:10042000019A29F003024FF6084C7244CFF6FF7C84
:1004300052F80C3004F00C060F25B540AB43009D7C
:1004400005FA06F6334342F80C30DEF808204B6814
:1004500042EA080643F60C4CDD0258BF22EA0806C1
:10046000CEF80860C4F2010CDCF800209D0242EADC
:10047000080658BF22EA0806CCF80060DEF804201F
:100480009D0342EA080658BF22EA0806CEF8046037
:10049000DEF80020DB0342EA080658BF22EA08061D
:1004A000CEF8006050E702B0BDE8F08F426902EA82
:1004B0000103914341EA03418161704740F26800C2
:1004C000C2F20000006870474EF68850CEF200007D
:1004D000016841F4700101607047000086B000209F
:1004E00043F630010190C4F202010A6841F60004AB
:1004F00042F040020A600968C4F2020401F04001BF
:10050000019101994FF4005101910121CDE90210AF
:10051000049101A92046FFF7F9FE00BF20464FF4E1
:100520000051FFF7C3FF4FF47A70FFF7DBFEF5E7EA
:10053000F1EE100A4FF6FF71C0F2C03120EA01005F
:1005400040F04070E1EE100A704700006C050008B2
:100550000000002004000000C4010008700500082D
:100560000800002068060000E0010008010000000B
:0400000508000229C4
:00000001FF
